:100000004FEF14F00000000000EF00F000000000CF
:0A0010000000000000000000F3D71C
:0E001C000101B7B102D08B9801D08B88120081
:0E002A000101B7B102D08B9601D08B86120077
:0E0038000101B7B102D08D9601D08D86120065
:0E0046000101B7B102D0899401D08984120063
:0E0054000101B7B102D08B9C01D08B8C120041
:0E0062000101B7B102D08B9401D08B84120043
:0E0070000101B7B102D08B9A01D08B8A120029
:0E007E000101B7B102D08B9E01D08B8E120013
:0E008C000101B7B102D08A9201D08A8212001F
:0E009A000101B7B102D08D9401D08D84120007
:0E00A8000101B7B102D08F9201D08F821200F9
:0E00B6000101B7B102D08F9401D08F841200E7
:0E00C4000101B7B102D08B9801D08B881200D9
:0E00D2000101B7B102D08B9601D08B861200CF
:0E00E0000101B7B102D08A9401D08A841200C7
:0E00EE000101B7B102D08B9801D08B881200AF
:0E00FC000101B7B102D08B9601D08B861200A5
:0E010A000101B7B102D08F9001D08F8012009A
:0E0118000101B7B102D08B9A01D08B8A120080
:0E0126000101B7B102D08B9801D08B88120076
:0E0134000101B7B102D08B9801D08B88120068
:0E0142000101B7B102D08B9601D08B8612005E
:0E0150000101B7B102D08B9201D08B82120058
:0E015E000101B7B102D08B9A01D08B8A12003A
:0E016C000101B7B102D08D9001D08D8012003C
:10017A000F0121B302D00000FBD7B7C11CFF120048
:0E018A00ACB202D00000FCD7B7C1ADFF12002E
:0E0198000101B7B102D08B9001D08B80120014
:0E01A6000101B7B102D0899001D0898012000A
:0E01B4000101B7B102D0899801D089881200EC
:0E01C2000101B7B102D0899201D089821200EA
:0E01D0000101B7B102D08B9601D08B861200D0
:0E01DE000101B7B102D08D9201D08D821200C6
:0E01EC000101B7B102D08B9801D08B881200B0
:0E01FA000101B7B102D08B9E01D08B8E120096
:0E0208000101B7B102D08A9001D08A801200A5
:0E0216000101B7B102D08B9601D08B86120089
:0E0224000101B7B102D08B9C01D08B8C12006F
:10023200F250026EF29E0500FF6A0150FE6E0050FF
:08024200FD6E02BEF28E1200F7
:10024A0068B409D01F0E6614016E0150000A03E15A
:0A025A00010E006E01D0006A1200D0
:10026400C7B409D01F0EC514016E0150000A03E182
:0A027400010E006E01D0006A1200B6
:0A027E00000E82BC010E006E12009B
:0A028800000E82B6010E006E120097
:0A029200000E81B2010E006E120092
:0A029C00000E82BE010E006E12007B
:0A02A600000E84B6010E006E120077
:0A02B000000E80B4010E006E120073
:0A02BA00000E84B4010E006E120065
:0A02C400000E82B8010E006E120059
:0A02CE00000E82B6010E006E120051
:0A02D800000E82B4010E006E120049
:0A02E200000E82B8010E006E12003B
:0A02EC00000E80B2010E006E120039
:0A02F600000E82B6010E006E120029
:0A030000000E82BE010E006E120016
:0A030A00000E82BC010E006E12000E
:0A031400000E82B8010E006E120008
:0A031E00000E82BA010E006E1200FC
:0A032800000E82B6010E006E1200F6
:0A033200000E80B8010E006E1200EC
:0A033C00000E84B2010E006E1200E4
:04034600C584120058
:10034A003AC0B1F13BC0B2F13CC0B3F13DC0B4F127
:10035A00668266A21FD03A503B103C103D1019E04D
:10036A000101B151B211B311B4110CE146C0E1FF60
:10037A0047C0E2FF060EE66E44C000F045C001F039
:10038A0053DF08D0010E0101B15F000EB25BB35B0F
:06039A00B45BDFD7120086
:1003A00019C0B1F11AC0B2F11BC0B3F11CC0B4F155
:1003B000C582C5A21FD019501A101B101C1019E0BD
:1003C0000101B151B211B311B4110CE14AC0E1FF06
:1003D0004BC0E2FF060EE66E48C000F049C001F0D7
:1003E00028DF08D0010E0101B15F000EB25BB35BE4
:0603F000B45BDFD7120030
:1003F6003AC0B3F13BC0B4F13CC0B5F13DC0B6F173
:10040600A19A6686A1BA1FD03A503B103C103D1007
:1004160019E00101B351B411B511B6110CE146C092
:10042600E1FF47C0E2FF030EE66E44C000F045C0A0
:1004360001F0FCDE08D0010E0101B35F000EB45BD3
:10044600B55BB65BDFD701016ACFB2F1B151000AE5
:1004560002E1668A01D0669AA19A66883AC0B3F12B
:100466003BC0B4F13CC0B5F13DC0B6F1A1BA1FD056
:100476003A503B103C103D1019E00101B351B41144
:10048600B511B6110CE146C0E1FF47C0E2FF030E0D
:10049600E66E44C000F045C001F0C8DE08D0010E8B
:1004A6000101B35F000EB45BB55BB65BDFD7B2C1CB
:0404B60000F0120040
:1004BA00A19AB1C16AFF3AC0B2F13BC0B3F13CC0E4
:1004CA00B4F13DC0B5F168A421D03A503B103C10BC
:1004DA003D101BE00101B251B311B411B5110EE187
:1004EA0046C0E1FF47C0E2FF040EE66E44C000F0DA
:1004FA0045C001F099DE010E006E3AD0010E0101ED
:10050A00B25F000EB35BB45BB55BDDD73AC0B2F144
:10051A003BC0B3F13CC0B4F13DC0B5F1A1BA21D0A2
:10052A003A503B103C103D101BE00101B251B3118F
:10053A00B411B5110EE146C0E1FF47C0E2FF040E57
:10054A00E66E44C000F045C001F06EDE010E006E9A
:10055A000FD0010E0101B25F000EB35BB45BB55B55
:10056A00DDD766BC02D0006A03D06684020E006E34
:02057A0012006D
:10057C000B820BAEC8EF02F00368026801680068DA
:08058C000A360232FF0E1200D4
:0E059400026A016A006A086A036A000E120019
:0805A2000AAE029E000E1200D9
:0405AA006684120051
:1005AE000B840BAEE2EF02F0010E036E026A016ADB
:0A05BE00006A0A360232FF0E120036
:0A05C800000E81B4010E006E120057
:0A05D200000E86B4010E006E120048
:0A05DC00000E86B0010E006E120042
:0A05E600000E82B8010E006E120034
:0A05F000000E82BA010E006E120028
:1005FA0019C0B3F11AC0B4F11BC0B5F11CC0B6F1F1
:10060A009E96C5869EB61FD019501A101B101C1034
:10061A0019E00101B351B411B511B6110CE14AC088
:10062A00E1FF4BC0E2FF030EE66E48C000F049C08E
:10063A0001F0FADD08D0010E0101B35F000EB45BD0
:10064A00B55BB65BDFD70101C9CFB2F1B151000A80
:10065A0002E1C58A01D0C59A9E96C58819C0B3F130
:10066A001AC0B4F11BC0B5F11CC0B6F19EB61FD0BA
:10067A0019501A101B101C1019E00101B351B411C2
:10068A00B511B6110CE14AC0E1FF4BC0E2FF030EFF
:10069A00E66E48C000F049C001F0C6DD08D0010E80
:1006AA000101B35F000EB45BB55BB65BDFD7B2C1C5
:0406BA0000F012003A
:1006BE009E96B1C1C9FF19C0B2F11AC0B3F11BC0E9
:1006CE00B4F11CC0B5F1C7A421D019501A101B10DB
:1006DE001C101BE00101B251B311B411B5110EE1A2
:1006EE004AC0E1FF4BC0E2FF040EE66E48C000F0C8
:1006FE0049C001F097DD010E006E3AD0010E0101E6
:10070E00B25F000EB35BB45BB55BDDD719C0B2F15F
:10071E001AC0B3F11BC0B4F11CC0B5F19EB621D006
:10072E0019501A101B101C101BE00101B251B3110D
:10073E00B411B5110EE14AC0E1FF4BC0E2FF040E49
:10074E00E66E48C000F049C001F06CDD010E006E8F
:10075E000FD0010E0101B25F000EB35BB45BB55B4F
:10076E00DDD7C5BC02D0006A03D0C584020E006E70
:02077E00120067
:0A078000000E82B8010E006E120098
:0A078A00000E86B2010E006E120090
:0A079400000E82B6010E006E120086
:0A079E00000E81B0010E006E120083
:0A07A800000EACB2010E006E12004C
:1007B2001DCF01F00F0122A302D02299228901C08C
:0407C20000F0120031
:0A07C600000EA4BA010E006E12002E
:0A07D000000E9EBA010E006E12002A
:1007DA0019C0B3F11AC0B4F11BC0B5F11CC0B6F10F
:1007EA000101B16BB26BB251120802E1B1518E082C
:1007FA0008E333DD005201E004D00101B14BB22B12
:10080A00F2D70101120EB25D02E18F0EB15D03E370
:10081A007B0E006E24D0C580C5A020D019501A10B6
:10082A001B101C101AE0B351B411B511B6110EE128
:10083A004AC0E1FF4BC0E2FF050EE66E48C000F079
:10084A0049C001F0F1DC010E006E09D0010E010170
:10085A00B35F000EB45BB55BB65BDED7006A12000D
:10086A003AC0B3F13BC0B4F13CC0B5F13DC0B6F1FA
:10087A000101B16BB26BB251120802E1B1518E089B
:10088A0008E3DEDC005201E004D00101B14BB22BD7
:10089A00F2D70101120EB25D02E18F0EB15D03E3E0
:1008AA007B0E006E24D0668066A020D03A503B10A2
:1008BA003C103D101AE0B351B411B511B6110EE156
:1008CA0046C0E1FF47C0E2FF050EE66E44C000F0F5
:1008DA0045C001F0A9DC010E006E09D0010E01012C
:1008EA00B35F000EB45BB55BB65BDED7006A12007D
:1008FA00AECF01F0ABA202D0AB98AB8801C000F03A
:02090A001200D9
:0C090C00000E0F0121B3010E006E12005E
:0A091800000E82B8010E006E1200FE
:0A092200000E82BA010E006E1200F2
:0A092C00000E82B2010E006E1200F0
:0A093600000E82B6010E006E1200E2
:0A094000000E82B0010E006E1200DE
:0A094A00000E80B0010E006E1200D6
:0A095400000E84B0010E006E1200C8
:10095E000CB0F1EF04F00CA297EF05F00E6A000E4A
:10096E00026408EF05F0F00E0214D8A4D3EF04F0E1
:10097E00023A01380F0B02260138F00B016E0038D7
:10098E000F0B01260038F00B006E08380F0B0026F7
:10099E000838F00B086E0E84D89002BEECEF04F00F
:1009AE0008360036013602360E2A02BEECEF04F08F
:1009BE0008360036013602360E2A02BEECEF04F07F
:1009CE0008360036013602360E2A0E5003648DEFBD
:1009DE0005F0035E0BBC08AE92EF05F0D880800EDA
:1009EE0008640030000E002201220222D8A092EFED
:1009FE0005F0023201320032034A97EF05F092EF12
:100A0E0005F001C002F000C001F008C000F0086A55
:100A1E00000E0E8602643FEF05F0F00E0214D8A40D
:100A2E0027EF05F0023A01380F0B02260138F00BC2
:100A3E00016E00380F0B01260038F00B006E0E848D
:100A4E00D89002BEECEF04F00036013602360E2AC4
:100A5E0002BEECEF04F00036013602360E2A02BE5C
:100A6E00ECEF04F00036013602360E2AECEF04F0FD
:100A7E0001C002F000C001F0006A000E0E960E8852
:100A8E0002646CEF05F0F00E0214D8A457EF05F0D7
:100A9E00023A01380F0B02260138F00B016E0E845C
:100AAE00D89002BEECEF04F0013602360E2A02BEDA
:100ABE00ECEF04F0013602360E2A02BEECEF04F023
:100ACE00013602360E2AECEF04F001C002F0016A84
:100ADE00000E0E8602649CEF05F0F00E0214D8A4F0
:100AEE007BEF05F0023A0E84D89002BEECEF04F0D4
:100AFE0002360E2A02BEECEF04F002360E2A02BEB9
:100B0E00ECEF04F002360E2AECEF04F0010E0C6E40
:100B1E0047DD9FEF05F0020E0C6E3CDD9FEF05F0FA
:100B2E00040E0C6E24DD9FEF05F0080E0C6E2BDD0F
:020B3E001200A3
:100B40008A0E01016C6F010E6D6FB70E6E6F010E94
:100B50006F6FFA0E756F080E766F000E776F000ECE
:100B6000786FD00E7D6F070E7E6F000E7F6F000EC8
:100B7000806FA80E816F070E826F000E836F000ECC
:100B8000846FAC8A900EAB6E948E949C9EAA03D018
:080B9000AECF00F0FBD712000C
:100B9800640E0101686F020E696F000E6A6F000E25
:100BA8006B6FDA0E646F070E656F000E666F000ECE
:100BB800676FA00E546F030E556F000E566F000E30
:100BC800576FFA0E5C6F050E5D6FB10E5E6F010E0A
:100BD8005F6FBE0E606F060E616FB10E626F010E21
:100BE800636F460E4C6E030E4D6E000E4E6E000E79
:100BF8004F6E949894968B988B9694889486C79EFB
:080C0800C79C380EC66E1200F5
:100C10007A0E01016C6F010E6D6FB70E6E6F010ED3
:100C20006F6FB20E756F070E766F000E776F000E46
:100C3000786FC60E7D6F070E7E6F000E7F6F000E01
:100C4000806F0C0E816F090E826F000E836F000E95
:100C5000846F0F01218B900E226F98849892A4AA22
:0A0C600003D01DCF00F0FBD71200F7
:100C6A00A3C1F6FFA4C1F7FFA5C1F8FF0900F5CF9C
:100C7A0071F10900F5CF72F10900F5CF73F109009E
:100C8A00F5CF74F1040E0101A325F66E000EA4211E
:100C9A00F76E000EA521F86E0900F5CF85F109005F
:100CAA00F5CF86F10900F5CF87F10900F5CF88F174
:100CBA00080EA325F66E000EA421F76E000EA521DC
:100CCA00F86E0900F5CF91F10900F5CF92F109000C
:100CDA00F5CF93F10900F5CF94F10C0EA325F66E2A
:100CEA00000EA421F76E000EA521F86E0900F5CFBB
:100CFA008DF10900F5CF8EF10900F5CF8FF10900CA
:100D0A00F5CF90F1100EA325F66E000EA421F76E12
:100D1A00000EA521F86E0900F5CF89F10900F5CF7B
:100D2A008AF10900F5CF8BF10900F5CF8CF1120099
:100D3A00300E0101A325006E000EA421016E000EE3
:100D4A00A521026E1C0E0024F66E000E0120F76E1D
:100D5A00000E0220F86E0900F5CF79F10900F5CFEF
:100D6A007AF10900F5CF7BF10900F5CF7CF1120089
:100D7A0021D0CF0EAF6EAC94DEDE6BD0670EAF6EB5
:100D8A00AC94D9DE66D0CF0EAF6EAC84D4DE61D01F
:100D9A00670EAF6EAC84CFDE5CD0440EAF6EAC840F
:100DAA00CADE57D0220EAF6EAC84C5DE52D0060E14
:100DBA00006E58D00101000E006EA61908E100501D
:100DCA00A51905E1120EA41902E1A351C00AD1E046
:100DDA00000E006EA61908E10050A51905E1250EBE
:100DEA00A41902E1A351800AC9E0000E006EA619F7
:100DFA0008E10050A51905E14B0EA41902E1A3511F
:100E0A00000AC1E0000E006EA61908E10050A519FB
:100E1A0005E1960EA41902E1A351000AB9E0000EF9
:100E2A00006EA61908E10050A51905E1E10EA41902
:100E3A0002E1A351000AB1E0A651000A08E1A55156
:100E4A00010A05E1A451C20A02E1A351000AAAE07B
:100E5A00AED78A0E586F010E596FB70E5A6F010E30
:060E6A005B6F006A12003C
:100E700038D00F0120870D0E1F6F040E1E6F2185C5
:100E8000C7DE7ED00F012087060E1F6F820E1E6FF9
:100E90002185BEDE75D00F012087030E1F6F400E27
:100EA0001E6F2185B5DE6CD00F012087010E1F6FEC
:100EB000A00E1E6F2185ACDE63D00F012087010ECE
:100EC0001F6F150E1E6F2185A3DE5AD00F012087DC
:100ED0001F6B8A0E1E6F21859BDE52D0060E006EA0
:100EE00059D0000E006E0101A61908E10050A519A5
:100EF00005E1120EA41902E1A351C00ABAE0000EE6
:100F0000006EA61908E10050A51905E1250EA419E7
:100F100002E1A351800AB6E0000E006EA61908E1B6
:100F20000050A51905E14B0EA41902E1A351000AD6
:100F3000B2E0000E006EA61908E10050A51905E107
:100F4000960EA41902E1A351000AAEE0000E006E55
:100F5000A61908E10050A51905E1E10EA41902E166
:100F6000A351000AAAE0A651000A08E1A551010A0E
:100F700005E1A451C20A02E1A351000AA7E0AED7DD
:100F800001017A0E586F010E596FB70E5A6F010E9C
:060F90005B6F006A120015
:100F960021D0CF0EAF6EAC94D0DD6BD0670EAF6EA6
:100FA600AC94CBDD66D0CF0EAF6EAC84C6DD61D01F
:100FB600670EAF6EAC84C1DD5CD0440EAF6EAC8400
:100FC600BCDD57D0220EAF6EAC84B7DD52D0060E14
:100FD600006E58D00101000E006EA61908E10050FF
:100FE600A51905E1120EA41902E1A351C00AD1E028
:100FF600000E006EA61908E10050A51905E1250EA0
:10100600A41902E1A351800AC9E0000E006EA619D8
:1010160008E10050A51905E14B0EA41902E1A35100
:10102600000AC1E0000E006EA61908E10050A519DD
:1010360005E1960EA41902E1A351000AB9E0000EDB
:10104600006EA61908E10050A51905E1E10EA419E4
:1010560002E1A351000AB1E0A651000A08E1A55138
:10106600010A05E1A451C20A02E1A351000AAAE05D
:10107600AED78A0E586F010E596FB70E5A6F010E12
:061086005B6F006A12001E
:10108C005DD00101A4B102D0929401D092840F01E1
:10109C0025957AD00101A4B102D0969601D09686FE
:1010AC0073D00101A4B102D0969401D096846CD077
:1010BC000101A4B102D0949601D0948665D00101AF
:1010CC00A4B102D0949801D094885ED00101A4B14F
:1010DC0002D0949A01D0948A57D00101A4B102D0C5
:1010EC00989001D0988050D00101A4B102D0939473
:1010FC0001D0938449D00101A4B102D0989401D0BD
:10110C0098840F01239540D00101A4B102D098928C
:10111C0001D098820F01239337D00101A4B102D0E2
:10112C00949601D0948630D00101A4B102D0949849
:10113C0001D0948829D0010E006E28D00101A35152
:10114C00000A9FE0A351010AA5E0A351020AA9E0FD
:10115C00A351030AADE0A351040AB1E0A351050A5F
:10116C00B5E0A351060AB9E0A351070ABDE0A351AB
:10117C00080AC1E0A351090AC7E0A3510A0ACDE04D
:0E118C00A3510B0AD1E0D7D7000E006E12005F
:10119A0059D00101A4B102D0929201D092820F01DA
:1011AA00259376D00101A4B102D0929801D09288F9
:1011BA006FD00101A4B102D0969201D0968268D074
:1011CA000101A4B102D0949601D0948661D00101A4
:1011DA00A4B102D0949801D094885AD00101A4B144
:1011EA0002D0949A01D0948A53D00101A4B102D0BA
:1011FA00949401D094844CD00101A4B102D093926A
:10120A0001D0938245D00101A4B102D0949E01D0AD
:10121A00948E3ED00101A4B102D0949C01D0948C4A
:10122A0037D00101A4B102D0949601D0948630D06F
:10123A000101A4B102D0949801D0948829D0010E5A
:10124A00006E28D00101A351000AA3E0A351010AAC
:10125A00A9E0A351020AADE0A351030AB1E0A351E8
:10126A00040AB5E0A351050AB9E0A351060ABDE094
:10127A00A351070AC1E0A351080AC5E0A351090A0C
:10128A00C9E0A3510A0ACDE0A3510B0AD1E0D7D78E
:06129A00000E006E1200C0
:1012A00059D00101A4B102D0929001D092800F01D7
:1012B000259176D00101A4B102D0949001D0948000
:1012C0006FD00101A4B102D0969001D0968068D071
:1012D0000101A4B102D0949601D0948661D001019D
:1012E000A4B102D0949801D094885AD00101A4B13D
:1012F00002D0949A01D0948A53D00101A4B102D0B3
:10130000949201D094824CD00101A4B102D0939068
:1013100001D0938045D00101A4B102D0949E01D0A8
:10132000948E3ED00101A4B102D0949C01D0948C43
:1013300037D00101A4B102D0949601D0948630D068
:101340000101A4B102D0949801D0948829D0010E53
:10135000006E28D00101A351000AA3E0A351010AA5
:10136000A9E0A351020AADE0A351030AB1E0A351E1
:10137000040AB5E0A351050AB9E0A351060ABDE08D
:10138000A351070AC1E0A351080AC5E0A351090A05
:10139000C9E0A3510A0ACDE0A3510B0AD1E0D7D787
:0613A000000E006E1200B9
:1013A600A3C1A6F1A4C1A7F1A5C1A8F10DD0A00EB5
:1013B600C86ECCEC05F045D0280EC86ECCEC05F016
:1013C60040D0040E006E3FD0A6C1F6FFA7C1F7FFBE
:1013D600A8C1F8FF0900F5CF01F00900F5CF02F02A
:1013E6000900F5CF03F00900F5CF04F00450000A18
:1013F60008E10350010A05E10250860A02E10150A4
:10140600A00AD5E0A6C1F6FFA7C1F7FFA8C1F8FF5D
:101416000900F5CF01F00900F5CF02F00900F5CF7C
:1014260003F00900F5CF04F00450000A08E1035068
:10143600060A05E102501A0A02E10150800ABCE0E0
:08144600C0D7000E006E120079
:10144E0027D0CF0EAF6EAC94A0EC05F070D0670E27
:10145E00AF6EAC94A0EC05F06AD0CF0EAF6EAC843C
:10146E00A0EC05F064D0670EAF6EAC84A0EC05F076
:10147E005ED0440EAF6EAC84A0EC05F058D0220EB8
:10148E00AF6EAC84A0EC05F052D0060E006E58D0B4
:10149E000101000E006EA61908E10050A51905E124
:1014AE00120EA41902E1A351C00ACBE0000E006E89
:1014BE00A61908E10050A51905E1250EA41902E1AF
:1014CE00A351800AC4E0000E006EA61908E1005078
:1014DE00A51905E14B0EA41902E1A351000ABDE0C6
:1014EE00000E006EA61908E10050A51905E1960E32
:1014FE00A41902E1A351000AB6E0000E006EA6196F
:10150E0008E10050A51905E1E10EA41902E1A3516D
:10151E00000AAFE0A651000A08E1A551010A05E153
:10152E00A451C20A02E1A351000AA9E0AED78A0E65
:10153E00586F010E596FB70E5A6F010E5B6F006A2E
:02154E00120089
:10155000A3C1A6F1A4C1A7F1A5C1A8F10DD0A00E09
:10156000C86ECCEC05F045D0280EC86ECCEC05F06A
:1015700040D0040E006E3FD0A6C1F6FFA7C1F7FF12
:10158000A8C1F8FF0900F5CF01F00900F5CF02F07E
:101590000900F5CF03F00900F5CF04F00450000A6C
:1015A00008E10350010A05E10250860A02E10150F8
:1015B000A00AD5E0A6C1F6FFA7C1F7FFA8C1F8FFB2
:1015C0000900F5CF01F00900F5CF02F00900F5CFD1
:1015D00003F00900F5CF04F00450000A08E10350BD
:1015E000060A05E102501A0A02E10150800ABCE035
:0815F000C0D7000E006E1200CE
:1015F800A3C1A6F1A4C1A7F1A5C1A8F10DD0A00E61
:10160800C86ECCEC05F045D0280EC86ECCEC05F0C1
:1016180040D0040E006E3FD0A6C1F6FFA7C1F7FF69
:10162800A8C1F8FF0900F5CF01F00900F5CF02F0D5
:101638000900F5CF03F00900F5CF04F00450000AC3
:1016480008E10350010A05E10250860A02E101504F
:10165800A00AD5E0A6C1F6FFA7C1F7FFA8C1F8FF09
:101668000900F5CF01F00900F5CF02F00900F5CF28
:1016780003F00900F5CF04F00450000A08E1035014
:10168800060A05E102501A0A02E10150800ABCE08C
:08169800C0D7000E006E120025
:1016A0000101A36BA46B71C100F072C101F019ECD0
:1016B00001F000C0A3F1000E0101A46FA3C100F06E
:0616C000A4C101F01200BC
:1016C600025006180E6E086A096A0B6A0350076410
:1016D60056EF0CF006500A6E068E028E03500B6E05
:1016E6000750036E000E0B64A6EF0BF00B50075E5F
:1016F600D8B447EF0CF0070E076415EF0CF0075E41
:1017060000C008F001C000F002C001F0026A074EF6
:1017160047EF0CF00764EAEF0BF0075E00C008F035
:1017260001C000F0016A074E47EF0CF00764C8EFEE
:101736000BF0075E00C008F0006A074E47EF0CF09A
:101746000764AFEF0BF00AC002F005C001F004C059
:1017560000F0086A73EF0DF0030E0764BAEF0BF0A2
:10176600075E08380F0B086E074E47EF0CF0D8904F
:101776000832074E47EF0CF0D8900832074E47EF75
:101786000CF0D890083247EF0CF0030E0764D9EF3F
:101796000BF0075E08380F0B086E0038F00B0826B2
:1017A60000380F0B006E074E47EF0CF0D890003252
:1017B6000832074E47EF0CF0D89000320832074E39
:1017C60047EF0CF0D8900032083247EF0CF0030ECA
:1017D600076401EF0CF0075E08380F0B086E00383F
:1017E600F00B082600380F0B006E0138F00B0026B0
:1017F60001380F0B016E074E47EF0CF0D8900132FF
:1018060000320832074E47EF0CF0D8900132003212
:101816000832074E47EF0CF0D890013200320832FA
:1018260047EF0CF0030E076432EF0CF0075E083842
:101836000F0B086E0038F00B082600380F0B006EF1
:101846000138F00B002601380F0B016E0238F00B41
:10185600012602380F0B026E074E47EF0CF0D890A8
:101866000232013200320832074E47EF0CF0D890B0
:101876000232013200320832074E47EF0CF0D890A0
:101886000232013200320832096A000E0EAE3BEF18
:101896000DF0081E001E011E021E082A002201224B
:1018A60002223BEF0DF00750D8A45CEF0CF073EF6B
:1018B6000DF0096A02C00AF0028E068E0750035C1C
:1018C600076ED8B42EEF0DF0070E0764FCEF0CF090
:1018D600075E0450096E0550046E0650056E066AD2
:1018E600074E2EEF0DF0070E0764D1EF0CF0075EE2
:1018F6000450096E0550046E056A074E2EEF0DF072
:10190600070E0764AFEF0CF0075E0450096E046A19
:10191600074E2EEF0DF0070E076496EF0CF00AC087
:1019260002F073EF0DF0030E0764A1EF0CF0075EF3
:1019360009380F0B096E074E2EEF0DF0D8900932BD
:10194600074E2EEF0DF0D8900932074E2EEF0DF010
:10195600D89009322EEF0DF0030E0764C0EF0CF09D
:10196600075E09380F0B096E0438F00B0926043898
:101976000F0B046E074E2EEF0DF0D890043209328D
:10198600074E2EEF0DF0D89004320932074E2EEF97
:101996000DF0D890043209322EEF0DF0030E0764D5
:1019A600E8EF0CF0075E09380F0B096E0438F00BF0
:1019B600092604380F0B046E0538F00B042605388B
:1019C6000F0B056E074E2EEF0DF0D8900532043240
:1019D6000932074E2EEF0DF0D89005320432093247
:1019E600074E2EEF0DF0D8900532043209322EEF55
:1019F6000DF0030E076419EF0DF0075E09380F0BA3
:101A0600096E0438F00B092604380F0B046E0538EE
:101A1600F00B042605380F0B056E0638F00B05266D
:101A260006380F0B066E074E2EEF0DF0D8900632D5
:101A3600053204320932074E2EEF0DF0D8900632E9
:101A4600053204320932074E2EEF0DF0D8900632D9
:101A5600053204320932086A000E0EAE3BEF0DF075
:101A6600091E041E051E061E092A04220522062238
:101A76000950082604500022055001220650022271
:101A86000EBE52EF0DF0D8A061EF0DF0023201321A
:101A960000320832033E61EF0DF06DEF0DF0D8B065
:101AA60067EF0DF0000E081E001E011E021E082A1A
:101AB6000022012202220A7E67EF0DF0010E0C6E53
:101AC600AFEC04F075EF0DF0020E0C6EAFEC04F007
:101AD60075EF0DF0040E0C6EBEEC02F075EF0DF016
:061AE600000E0C6E120060
:101AEC00A3C104F0A4C105F004C002F005C003F0CA
:101AFC00044A052AA5C100F0A6C101F00101A54BBD
:101B0C00A62B00C0E9FF01C0EAFF02C0E1FF03C041
:101B1C00E2FFEECFE6FF02C0E9FF03C0EAFFEE52A0
:0E1B2C0001E0E2D7A3C100F0A4C101F0120055
:101B3A000A6A0350D8A40A800750D8A40A820A5015
:101B4A00D8B400EF0EF0030AD8B4B9EF0DF00AB01A
:101B5A00B4EF0DF006AEFEEF0DF0FCEF0DF002AEA5
:101B6A00FCEF0DF0FEEF0DF00250800B0A6E029EA4
:101B7A000650800B069E0A18D8B4CAEF0DF00A5018
:101B8A00D8B4FCEF0DF0FEEF0DF00750035CD8B4AB
:101B9A00D4EF0DF0D8A0F0EF0DF0F6EF0DF00650EF
:101BAA00025CD8B4DEEF0DF0D8A0F0EF0DF0F6EF3E
:101BBA000DF00550015CD8B4E8EF0DF0D8A0F0EFB5
:101BCA000DF0F6EF0DF00450005CD8B400EF0EF003
:101BDA00D8B0F6EF0DF00A52D8B4FEEF0DF0FCEFD4
:101BEA000DF00A52D8B4FCEF0DF0FEEF0DF0D880DC
:0E1BFA001200D8901200D880D8841200120079
:101C080000C008F00B6A0C6A9E0E036E0A6A026A2C
:0E1C1800016A006A020E0C6EAFEC04F01200BE
:101C26000101AB6BAC6BA4C1A9F1A5C1AAF1A3C11B
:101C360000F0003600908FC1E1FF90C1E2FF00C0C6
:101C4600E6FF8DC100F08EC101F019EC01F00050E5
:101C56000101AB13000EAC13A6C100F0A7C101F041
:101C6600010EA65F000EA75B0050011018E08FC1A1
:101C7600E1FF90C1E2FFA9C1E9FFAAC1EAFFEECFE9
:101C8600E6FF8DC100F08EC101F019EC01F00050A5
:101C96000101AB13000EAC13A94BAA2BDDD7A8513B
:101CA600000A06E185C100F086C101F019EC01F0D9
:101CB6000101A851010A06E171C100F072C101F0EB
:0E1CC60019EC01F0ABC100F0ACC101F012004E
:101CD400090E0B6E1E0E0C6EE40E0D6E0D2EFED74D
:0C1CE4000C2EFCD70B2EFAD700001200CB
:101CF0000101AB6BAC6BA4C1A9F1A5C1AAF1A3C151
:101D000000F00036009000808FC1E1FF90C1E2FF3B
:101D100000C0E6FF8DC100F08EC101F019EC01F0AA
:101D200000500101AB13000EAC13010EA65F000EB4
:101D3000A75BA651A71116E08BC1E1FF8CC1E2FFA2
:101D4000010EE66E89C100F08AC101F019EC01F0C4
:101D5000A9C1E1FFAAC1E2FF00C0E6FF0101A94B52
:101D6000AA2BE3D78BC1E1FF8CC1E2FFE66A89C1F0
:101D700000F08AC101F019EC01F0A9C1E1FFAAC18C
:101D8000E2FF00C0E6FF0101A851000A06E185C19B
:101D900000F086C101F019EC01F00101A851010A1F
:101DA00006E191C100F092C101F019EC01F0ABC164
:081DB00000F0ACC101F01200CB
:101DB8005AC1E1FF5BC1E2FFA3C1E9FFA4C1EAFF89
:101DC800EECFE6FF58C100F059C101F019EC01F05F
:041DD800006A12008B
:101DDC000D6A086A0050D8B4000C04180A6E0ABECA
:101DEC000D1E0B6A04AE02D0041E042A00AE02D0F3
:101DFC00001E002A005004100A6E0ABE1FD00450A8
:101E0C00085E003600340836045008260036060EEC
:101E1C000C6E00340836045000B0085E00A0082692
:101E2C0000360C2EF6D700A008260BB015D00DAE40
:101E3C00000C001E002A081E082A000C04AE09D053
:101E4C0000BE04D00050086E006AF1D7006A002A68
:101E5C00000C001E0B2AD3D7082A0450085CD8A407
:0E1E6C00E6D7086A002A00AEE2D7FF0C12008B
:101E7A00086A096A000E07620364C2EF0FF0025093
:101E8A0006180A6E075003267E0ED8A053EF0FF0ED
:101E9A00035ED8B0C7EF0FF057EF0FF0035ED8A07C
:101EAA00CCEF0FF0028E068E02C00EF001C00BF0CE
:101EBA0000C00DF000500402F4CF0CF001500502EE
:101ECA00F4CF00F0F3CF08F00402F3500C26F450DC
:101EDA000822000E00220D500502F3500C26F45081
:101EEA000822000E002202500402F3500826F45081
:101EFA00002202500502016A000E0122F350002658
:101F0A00F45001220D500602F3500826F450002224
:101F1A00026A000E012202220B500602F35000262A
:101F2A00F4500122000E02220E500602F35001263E
:101F3A00F450022202BEAAEF0FF00836003601362C
:101F4A0002360306D8B4CCEF0FF0BDEF0FF0D880FD
:101F5A00800E08640030000E002201220222D8A05E
:101F6A00BDEF0FF0023201320032034AC7EF0FF021
:101F7A000AAE029E000ECFEF0FF0010ECAEC02F07D
:101F8A00CFEF0FF0020EBEEC02F0CFEF0FF0040E0F
:061F9A00D7EC02F012007A
:101FA00095C198F196C199F10D0E01019A6F0A0E33
:101FB0009B6F35D098C1A3F199C1A4F1FDDE3AD051
:101FC00098C1E9FF99C1EAFFEE5209E098C1A3F177
:101FD00099C1A4F1F1DE0101984B992BF1D72AD0D8
:101FE00098C1E9FF99C1EAFFEE5209E098C1A3F157
:101FF00099C1A4F1E1DE0101984B992BF1D70101C0
:102000009A0EA36F010EA46FD7DE9B0E0101A36F82
:10201000010EA46FD1DE0ED0060E006E0CD00101B1
:102020009751000AC7E09751010ACAE09751020A86
:08203000D7E0F2D7006A1200AC
:10203800010E0101966F95C197F150EC0BF070C13C
:10204800A3F1960EA46F010EA56F020EA66F000EE7
:0A205800A76FA86BE4DD3ADE12006A
:10206200010E0101966F50EC0BF070C1A3F1960EB8
:10207200A46F010EA56F010EA66F000EA76F010ED1
:10208200A86FD0DD70C1A3F1980E0101A46F010EFB
:10209200A56F010EA66F000EA76FA86B28DE19DED2
:1020A200010195519811976F50EC0BF070C1A3F19B
:1020B200960EA46F010EA56F020EA66F000EA76FFB
:0820C200A86BB0DD06DE120080
:1020CA001ED096C1A3F197C1A4F198C1A5F1D3EC92
:1020DA0009F020D096C1A3F197C1A4F198C1A5F146
:1020EA00FCEC0AF017D096C1A3F197C1A4F198C1EC
:1020FA00A5F1A8EC0AF00ED0010E006E0BD001017A
:10210A009551000ADEE09551010AE4E09551020A70
:06211A00EAE0F2D712001A
:1021200018D096C1A3F197C1A4F150EC09F01CD0CE
:1021300096C1A3F197C1A4F1CDEC08F015D096C1DA
:10214000A3F197C1A4F146EC08F00ED0010E006E89
:102150000BD001019551000AE4E09551010AE8E035
:0A2160009551020AECE0F2D71200DC
:10216A000101A16BA26B95C19DF196C19EF197C128
:10217A009FF198C1A0F1A051FF0A08E19F51FF0AFF
:10218A0005E19E51FF0A02E19D51FF0A0CE199C146
:10219A00A3F19AC1A4F1150EA56F000EA66FA1DCDA
:1021AA00030E006EE9D1010E9B6F9FAF0ED0800E19
:1021BA009F19006E00C09FF19B2B99C1E1FF9AC144
:1021CA00E2FF2D0EE66E994B9A2B000E006EA019B7
:1021DA0008E100509F1905E100509E1902E19D5146
:1021EA00000A0BE199C1A3F19AC1A4F1420EA56FAD
:1021FA00000EA66F76DC006ABFD1A051FF0A08E183
:10220A009F51000A05E19E51000A02E19D51000A10
:10221A000CE199C1A3F19AC1A4F13E0EA56F000E7B
:10222A00A66F5FDC9BC100F0A7D1000E046E000E02
:10223A00056E000E066E7F0E076E9DC100F09EC1F0
:10224A0001F09FC102F0A0C103F072DC010ED8B008
:10225A00000E006E00521BE09DC100F09EC101F00D
:10226A009FC102F0A0C103F0000E046E000E056EBD
:10227A00200E066E820E076EFBDD00C09DF101C0C6
:10228A009EF102C09FF103C0A0F1A207CED7000EB3
:10229A00046E000E056E200E066E820E076E9DC13C
:1022AA0000F09EC101F09FC102F0A0C103F040DC22
:1022BA00000ED8B0010E006E00521BE09DC100F066
:1022CA009EC101F09FC102F0A0C103F0CD0E046EC1
:1022DA00CC0E056E4C0E066E7B0E076EC9DD00C075
:1022EA009DF101C09EF102C09FF103C0A0F1A22B93
:1022FA00CED7FF0E9D15086EFF0E9E15096E7F0E36
:10230A009F150A6E000EA0150B6E08C004F009C0D6
:10231A0005F00AC006F00BC007F004360490053633
:10232A0006360736000E9D15006E000E9E15016ECC
:10233A00000E9F15026EFF0EA015036E00C09DF1E0
:10234A0001C09EF102C09FF103C0A0F104509D118B
:10235A00006E05509E11016E06509F11026E0750C5
:10236A00A011036E00C09DF101C09EF102C09FF151
:10237A0003C0A0F17F0EA05D006E00C09CF1010EAB
:10238A00A06F00C004F09DC100F09EC101F09FC182
:10239A0002F0A0C103F0045007E0003600900136B5
:1023AA0002360336FF0FF8D700C09DF101C09EF137
:1023BA0002C09FF103C0A0F199C1E1FF9AC1E2FFF7
:1023CA00A051300FE66E994B9A2B800EA219006E1F
:1023DA00800E010A005C08E3800E060A006E800E79
:1023EA00A219005C01E30AD099C1E1FF9AC1E2FF98
:1023FA002E0EE66E994B9A2B010EA16F060E9C6F5C
:10240A009C51000A54E0A06B9DC100F09EC101F0EE
:10241A009FC102F0A0C103F00036009001360236D7
:10242A000336003600900136023603369D510026E7
:10243A009E5101229F510222A051032200C09DF108
:10244A0001C09EF102C09FF103C0A0F19DC100F03E
:10245A009EC101F09FC102F0A0C103F000360090B6
:10246A0001360236033600C09DF101C09EF102C05A
:10247A009FF103C0A0F199C1E1FF9AC1E2FFA05107
:10248A00300FE66E994B9A2BA151000A0EE1A20772
:10249A00A251000A0AE199C1E1FF9AC1E2FF2E0E98
:1024AA00E66E994B9A2B010EA16F9C07A9D7FF0ED6
:1024BA009925E96EFF0E9A21EA6EEE50300A05E17F
:1024CA00010E995F000E9A5BF2D7FF0E9925E96E0D
:1024DA00FF0E9A21EA6EEE502E0A04E1010E995F70
:1024EA00000E9A5BA251000A41E099C1E1FF9AC12C
:1024FA00E2FF650EE66E994B9A2B800EA219006ECA
:10250A00800E000A005C0BE299C1E1FF9AC1E2FF6A
:10251A002D0EE66E994B9A2BA2510008A26FA2C10A
:10252A009CF1800E090A006E800EA219005C0EE270
:10253A000A0E046E9CC100F04CDC99C1E1FF9AC1FD
:10254A00E2FF0050300FE66E994B9A2B0A0E046E8A
:10255A009CC100F03EDC08C000F099C1E1FF9AC1BD
:10256A00E2FF0050300FE66E994B9A2B99C1E1FFBA
:0A257A009AC1E2FFE66A006A12004F
:102584002FD096C1A3F197C1A4F198C1A5F199C127
:10259400A6F127EC0AF032D096C1A3F197C1A4F1B9
:1025A40098C1A5F199C1A6F1CBEC07F027D096C14B
:1025B400A3F197C1A4F198C1A5F199C1A6F138EC92
:1025C40007F01CD096C1A3F197C1A4F198C1A5F15D
:1025D40099C1A6F1BDEC06F011D0010E006E0ED02B
:1025E40001019551000ACDE09551010AD5E09551BC
:0E25F400020ADDE09551100AE5E0EFD7120073
:1026020001019B6B9C6B956B50EC0BF070C1A3F1BD
:10261200950EA46F010EA56F010EA66F000EA76F97
:10262200010EA86F13EC0EF070C1A3F19B0E010115
:10263200A46F010EA56F020EA66F000EA76FA86B06
:1026420078EC0EF06AEC0EF09BC100F004EC0EF098
:1026520000C096F101C097F102C098F103C099F150
:10266200F00E01019C15016E01C09AF101AE1AD063
:1026720096C100F097C101F098C102F099C103F030
:10268200000E046E000E056E000E066E7E0E076EC4
:1026920063EC0BF000C096F101C097F102C098F113
:1026A20003C099F19AAD1AD096C100F097C101F01A
:1026B20098C102F099C103F0000E046E000E056E7F
:1026C200000E066E7D0E076E63EC0BF000C096F1F5
:1026D20001C097F102C098F103C099F19AAB1AD0E8
:1026E20096C100F097C101F098C102F099C103F0C0
:1026F200000E046E000E056E000E066E7C0E076E56
:1027020063EC0BF000C096F101C097F102C098F1A2
:1027120003C099F19AA91AD096C100F097C101F0AD
:1027220098C102F099C103F0000E046E000E056E0E
:10273200000E066E7B0E076E63EC0BF000C096F186
:1027420001C097F102C098F103C099F196C100F05F
:0E27520097C101F098C102F099C103F0120086
:102760009BC170F198C1A3F199C1A4F19AC1A5F1DF
:1027700035EC06F095C1A3F196C1A4F197C1A5F17E
:062780009DEC06F01200C2
:102786000101956B070E966F010E976FC6DC01016E
:10279600956B4F0E966F290E976F000E986F92DC11
:1027A600100E0101956F800E966F250E976F000E25
:1027B600986F996FE4DE090E0B6E1E0E0C6EE40E1A
:1027C6000D6E0D2EFED70C2EFCD70B2EFAD7000061
:0227D6001200EF
:1027D8000900F5CFE6FF0006FBE10106F9E112006A
:1027E8000CDF00C050F101C051F102C052F103C02A
:1027F80053F100C095F101C096F102C097F103C0F2
:1028080098F1500E996F000E9A6FABDC220E956FFF
:10281800000E966F010E976FD0EC0FF0500E01016D
:10282800956F000E966F010E976FD0EC0FF01D0E8E
:102838000101956F000E966F020E976FD0EC0FF0A6
:10284800520E0B6E2B0E0C6E000E0D6E0D2EFED75B
:0C2858000C2EFCD70B2EFAD7000012004B
:10286400AC0E0101956F280E966F000E976F3B0E0C
:10287400986F290E996F000E9A6F480E9B6F6EDF4A
:10288400000E006E040E0010956F1CEC10F0600E2C
:0A2894000101956F31EC10F0120005
:0E289E00AAEC14F071DFDFDFA0DFFED7FFD75A
:1029540010EE15F02F0E006E010E016E0C0EF66EC9
:0E296400290EF76E000EF86EECEC13F0120068
:1028AC00A601B7019801B7016C01B7014201B7014C
:1028BC003401B7015E01B7015001B7010802B7013D
:1028CC00FA01B7012402B7011602B701EC01B701F6
:1028DC004A090000400900005409000036090000B4
:1028EC0018090000220900002C0900009E070000B6
:1028FC00000300000A030000F6020000E2020000E0
:04290C004E614E00CA
:0429100000000000C3
:0529140020C2B04300E9
:1029190020416D6269656E742074656D70657261C0
:0829290074757265203A20006C
:0429310000000000A2
:04293500494E4600C1
:0229390030006C
:10293B00DA07000046030000A0030000BE06B10149
:04294B00FA05B101D7
:04294F00A08601005D
:020000040030CA
:0E00000015137F7CF98B91FFFFC0FFE0FF40DE
:00000001FF
